{
  "_format": "hh-sol-artifact-1",
  "contractName": "Presale",
  "sourceName": "contracts/Presale.sol",
  "abi": [
    {
      "inputs": [
        {
          "internalType": "address",
          "name": "_token",
          "type": "address"
        },
        {
          "internalType": "uint256",
          "name": "_supply",
          "type": "uint256"
        },
        {
          "internalType": "uint256",
          "name": "_startTimestamp",
          "type": "uint256"
        },
        {
          "internalType": "uint256",
          "name": "_presalePeriod",
          "type": "uint256"
        },
        {
          "internalType": "uint256",
          "name": "_price",
          "type": "uint256"
        },
        {
          "internalType": "uint256",
          "name": "_initialVestingShare",
          "type": "uint256"
        },
        {
          "internalType": "uint256",
          "name": "_monthlyVestingShare",
          "type": "uint256"
        },
        {
          "internalType": "uint256",
          "name": "_refShare",
          "type": "uint256"
        }
      ],
      "stateMutability": "nonpayable",
      "type": "constructor"
    },
    {
      "anonymous": false,
      "inputs": [
        {
          "indexed": true,
          "internalType": "address",
          "name": "user",
          "type": "address"
        },
        {
          "indexed": false,
          "internalType": "uint256",
          "name": "tokensBought",
          "type": "uint256"
        },
        {
          "indexed": false,
          "internalType": "uint256",
          "name": "amountPaid",
          "type": "uint256"
        }
      ],
      "name": "Purchase",
      "type": "event"
    },
    {
      "inputs": [],
      "name": "CLIFF_VESTING_SHARE",
      "outputs": [
        {
          "internalType": "uint256",
          "name": "",
          "type": "uint256"
        }
      ],
      "stateMutability": "view",
      "type": "function"
    },
    {
      "inputs": [],
      "name": "END_TIME",
      "outputs": [
        {
          "internalType": "uint256",
          "name": "",
          "type": "uint256"
        }
      ],
      "stateMutability": "view",
      "type": "function"
    },
    {
      "inputs": [],
      "name": "MONTHLY_VESTING_SHARE",
      "outputs": [
        {
          "internalType": "uint256",
          "name": "",
          "type": "uint256"
        }
      ],
      "stateMutability": "view",
      "type": "function"
    },
    {
      "inputs": [],
      "name": "PRICE",
      "outputs": [
        {
          "internalType": "uint256",
          "name": "",
          "type": "uint256"
        }
      ],
      "stateMutability": "view",
      "type": "function"
    },
    {
      "inputs": [],
      "name": "REF_SHARE",
      "outputs": [
        {
          "internalType": "uint256",
          "name": "",
          "type": "uint256"
        }
      ],
      "stateMutability": "view",
      "type": "function"
    },
    {
      "inputs": [],
      "name": "START_TIME",
      "outputs": [
        {
          "internalType": "uint256",
          "name": "",
          "type": "uint256"
        }
      ],
      "stateMutability": "view",
      "type": "function"
    },
    {
      "inputs": [],
      "name": "TOKEN",
      "outputs": [
        {
          "internalType": "address",
          "name": "",
          "type": "address"
        }
      ],
      "stateMutability": "view",
      "type": "function"
    },
    {
      "inputs": [],
      "name": "TO_DECIMALS",
      "outputs": [
        {
          "internalType": "uint256",
          "name": "",
          "type": "uint256"
        }
      ],
      "stateMutability": "view",
      "type": "function"
    },
    {
      "inputs": [],
      "name": "VESTING_CLIFF",
      "outputs": [
        {
          "internalType": "uint256",
          "name": "",
          "type": "uint256"
        }
      ],
      "stateMutability": "view",
      "type": "function"
    },
    {
      "inputs": [],
      "name": "amountLeft",
      "outputs": [
        {
          "internalType": "uint256",
          "name": "",
          "type": "uint256"
        }
      ],
      "stateMutability": "view",
      "type": "function"
    },
    {
      "inputs": [],
      "name": "buy",
      "outputs": [
        {
          "internalType": "uint256",
          "name": "nativeForTokens",
          "type": "uint256"
        }
      ],
      "stateMutability": "payable",
      "type": "function"
    },
    {
      "inputs": [
        {
          "internalType": "address payable",
          "name": "referral",
          "type": "address"
        }
      ],
      "name": "buy",
      "outputs": [],
      "stateMutability": "payable",
      "type": "function"
    },
    {
      "inputs": [],
      "name": "claim",
      "outputs": [],
      "stateMutability": "nonpayable",
      "type": "function"
    },
    {
      "inputs": [
        {
          "internalType": "address",
          "name": "user",
          "type": "address"
        }
      ],
      "name": "claimableAmount",
      "outputs": [
        {
          "internalType": "uint256",
          "name": "amountToClaim",
          "type": "uint256"
        }
      ],
      "stateMutability": "view",
      "type": "function"
    },
    {
      "inputs": [],
      "name": "owner",
      "outputs": [
        {
          "internalType": "address payable",
          "name": "",
          "type": "address"
        }
      ],
      "stateMutability": "view",
      "type": "function"
    },
    {
      "inputs": [],
      "name": "tokenBalance",
      "outputs": [
        {
          "internalType": "uint256",
          "name": "",
          "type": "uint256"
        }
      ],
      "stateMutability": "view",
      "type": "function"
    },
    {
      "inputs": [
        {
          "internalType": "address",
          "name": "",
          "type": "address"
        }
      ],
      "name": "userVesting",
      "outputs": [
        {
          "internalType": "uint256",
          "name": "totalAmount",
          "type": "uint256"
        },
        {
          "internalType": "uint256",
          "name": "claimedAmount",
          "type": "uint256"
        }
      ],
      "stateMutability": "view",
      "type": "function"
    },
    {
      "inputs": [],
      "name": "withdraw",
      "outputs": [],
      "stateMutability": "nonpayable",
      "type": "function"
    }
  ],
  "bytecode": "0x6101806040523480156200001257600080fd5b50604051620024e3380380620024e3833981810160405281019062000038919062000387565b6200005467809649fb44cb1bd960c01b620002df60201b60201c565b62000070671f61829cf08af3aa60c01b620002df60201b60201c565b8773ffffffffffffffffffffffffffffffffffffffff1660a08173ffffffffffffffffffffffffffffffffffffffff1681525050620000c067ea0a004cdc1e479060c01b620002df60201b60201c565b8560c08181525050620000e4674ac56037748a719460c01b620002df60201b60201c565b6201518085620000f591906200047f565b86620001029190620004ca565b60e08181525050620001256766109b8fa5d234ff60c01b620002df60201b60201c565b8361010081815250506200014a67afd6ddbec1d49ac060c01b620002df60201b60201c565b60a05173ffffffffffffffffffffffffffffffffffffffff1663313ce5676040518163ffffffff1660e01b8152600401602060405180830381865afa15801562000198573d6000803e3d6000fd5b505050506040513d601f19601f82011682018060405250810190620001be919062000543565b600a620001cc9190620006c9565b60808181525050620001ef67f4664166fffe4fa660c01b620002df60201b60201c565b8261014081815250506200021467ed6375ca084b2e1060c01b620002df60201b60201c565b8161016081815250506200023967b3fd3e37cc4990f260c01b620002df60201b60201c565b8061012081815250506200025e67366eacf149586a5b60c01b620002df60201b60201c565b608051876200026e91906200047f565b60008190555062000290671d50fa71e7b34fee60c01b620002df60201b60201c565b33600160006101000a81548173ffffffffffffffffffffffffffffffffffffffff021916908373ffffffffffffffffffffffffffffffffffffffff16021790555050505050505050506200071a565b50565b600080fd5b600073ffffffffffffffffffffffffffffffffffffffff82169050919050565b60006200031482620002e7565b9050919050565b620003268162000307565b81146200033257600080fd5b50565b60008151905062000346816200031b565b92915050565b6000819050919050565b62000361816200034c565b81146200036d57600080fd5b50565b600081519050620003818162000356565b92915050565b600080600080600080600080610100898b031215620003ab57620003aa620002e2565b5b6000620003bb8b828c0162000335565b9850506020620003ce8b828c0162000370565b9750506040620003e18b828c0162000370565b9650506060620003f48b828c0162000370565b9550506080620004078b828c0162000370565b94505060a06200041a8b828c0162000370565b93505060c06200042d8b828c0162000370565b92505060e0620004408b828c0162000370565b9150509295985092959890939650565b7f4e487b7100000000000000000000000000000000000000000000000000000000600052601160045260246000fd5b60006200048c826200034c565b915062000499836200034c565b9250828202620004a9816200034c565b91508282048414831517620004c357620004c262000450565b5b5092915050565b6000620004d7826200034c565b9150620004e4836200034c565b9250828201905080821115620004ff57620004fe62000450565b5b92915050565b600060ff82169050919050565b6200051d8162000505565b81146200052957600080fd5b50565b6000815190506200053d8162000512565b92915050565b6000602082840312156200055c576200055b620002e2565b5b60006200056c848285016200052c565b91505092915050565b60008160011c9050919050565b6000808291508390505b6001851115620005d457808604811115620005ac57620005ab62000450565b5b6001851615620005bc5780820291505b8081029050620005cc8562000575565b94506200058c565b94509492505050565b600082620005ef5760019050620006c2565b81620005ff5760009050620006c2565b8160018114620006185760028114620006235762000659565b6001915050620006c2565b60ff84111562000638576200063762000450565b5b8360020a91508482111562000652576200065162000450565b5b50620006c2565b5060208310610133831016604e8410600b8410161715620006935782820a9050838111156200068d576200068c62000450565b5b620006c2565b620006a2848484600162000582565b92509050818404811115620006bc57620006bb62000450565b5b81810290505b9392505050565b6000620006d6826200034c565b9150620006e38362000505565b9250620007127fffffffffffffffffffffffffffffffffffffffffffffffffffffffffffffffff8484620005dd565b905092915050565b60805160a05160c05160e05161010051610120516101405161016051611d01620007e260003960008181610bc80152611589015260008181610bf4015261140f0152600081816109a0015261151c015260008181610ce10152818161103701526111b30152600081816103f70152818161059b01528181610a2a01528181610ad00152610e98015260008181610e6e01526113e50152600081816108d3015281816109c40152610d6901526000818161097c0152818161105801526111920152611d016000f3fe6080604052600436106101095760003560e01c80638d859f3e11610095578063ddaa26ad11610064578063ddaa26ad1461032d578063e011ac8714610358578063ee26671c14610383578063f088d547146103ae578063f3256483146103ca57610109565b80638d859f3e1461028e5780638da5cb5b146102b95780639e1a4d19146102e4578063a6f2ae3a1461030f57610109565b806363f3dbe5116100dc57806363f3dbe5146101a55780636b6a1fae146101d05780637c186278146101fb57806382bfefc814610226578063898850491461025157610109565b806337ba682d1461010e5780633ccfd60b146101395780634b128cd5146101505780634e71d92d1461018e575b600080fd5b34801561011a57600080fd5b506101236103f5565b60405161013091906115c7565b60405180910390f35b34801561014557600080fd5b5061014e610419565b005b34801561015c57600080fd5b5061017760048036038101906101729190611645565b6106a2565b604051610185929190611672565b60405180910390f35b34801561019a57600080fd5b506101a36106c6565b005b3480156101b157600080fd5b506101ba610973565b6040516101c791906115c7565b60405180910390f35b3480156101dc57600080fd5b506101e561097a565b6040516101f291906115c7565b60405180910390f35b34801561020757600080fd5b5061021061099e565b60405161021d91906115c7565b60405180910390f35b34801561023257600080fd5b5061023b6109c2565b60405161024891906116aa565b60405180910390f35b34801561025d57600080fd5b5061027860048036038101906102739190611645565b6109e6565b60405161028591906115c7565b60405180910390f35b34801561029a57600080fd5b506102a3610cdf565b6040516102b091906115c7565b60405180910390f35b3480156102c557600080fd5b506102ce610d03565b6040516102db91906116e6565b60405180910390f35b3480156102f057600080fd5b506102f9610d29565b60405161030691906115c7565b60405180910390f35b610317610e06565b60405161032491906115c7565b60405180910390f35b34801561033957600080fd5b506103426113e3565b60405161034f91906115c7565b60405180910390f35b34801561036457600080fd5b5061036d611407565b60405161037a91906115c7565b60405180910390f35b34801561038f57600080fd5b5061039861140d565b6040516103a591906115c7565b60405180910390f35b6103c860048036038101906103c3919061172d565b611431565b005b3480156103d657600080fd5b506103df611587565b6040516103ec91906115c7565b60405180910390f35b7f000000000000000000000000000000000000000000000000000000000000000081565b61042d6711b7aba7b071e48660c01b6115ab565b61044167899e82afe13cc7ae60c01b6115ab565b61045567bc9fab4e89619a8360c01b6115ab565b610469675eb1fa6268033c3660c01b6115ab565b61047d67fb31850e26eda36060c01b6115ab565b600160009054906101000a900473ffffffffffffffffffffffffffffffffffffffff1673ffffffffffffffffffffffffffffffffffffffff163373ffffffffffffffffffffffffffffffffffffffff161461050d576040517f08c379a0000000000000000000000000000000000000000000000000000000008152600401610504906117b7565b60405180910390fd5b610521679913f8e251498a6e60c01b6115ab565b61053567e3ae796039a7bddf60c01b6115ab565b610549673823d1e1471e025260c01b6115ab565b61055d672d2af3df761a458d60c01b6115ab565b61057167970e10b6474a19a360c01b6115ab565b61058567ed439d9cda5759e460c01b6115ab565b6105996761b2edb544047d4360c01b6115ab565b7f000000000000000000000000000000000000000000000000000000000000000042116105fb576040517f08c379a00000000000000000000000000000000000000000000000000000000081526004016105f290611849565b60405180910390fd5b61060f67a4cc8bbea41bdf3060c01b6115ab565b61062367a0d2f5860be8e46860c01b6115ab565b6106376771ac7c75fc3b99c260c01b6115ab565b600160009054906101000a900473ffffffffffffffffffffffffffffffffffffffff1673ffffffffffffffffffffffffffffffffffffffff166108fc479081150290604051600060405180830381858888f1935050505015801561069f573d6000803e3d6000fd5b50565b60026020528060005260406000206000915090508060000154908060010154905082565b6106da677ab7d8a4254faab560c01b6115ab565b6106ee675a76440bb3b5aa5c60c01b6115ab565b61070267f099031922e5a99c60c01b6115ab565b600061070d336109e6565b905061072367acb69e2abb90261260c01b6115ab565b6107376763a0c08ca2560ae760c01b6115ab565b61074b6781836ee9b9be3b6160c01b6115ab565b6000811161078e576040517f08c379a0000000000000000000000000000000000000000000000000000000008152600401610785906118b5565b60405180910390fd5b6107a26733091351e4c3598260c01b6115ab565b6107b66773ea85c502ac546a60c01b6115ab565b6107ca672b1c064e5edf76eb60c01b6115ab565b6107de67e32d6b566b1e942660c01b6115ab565b6107e6610d29565b811115610828576040517f08c379a000000000000000000000000000000000000000000000000000000000815260040161081f90611947565b60405180910390fd5b61083c670a9b25f4c2af9fd460c01b6115ab565b61085067c412b231cc7e8f2d60c01b6115ab565b80600260003373ffffffffffffffffffffffffffffffffffffffff1673ffffffffffffffffffffffffffffffffffffffff16815260200190815260200160002060010160008282546108a29190611996565b925050819055506108bd679151c547dc4b5dc460c01b6115ab565b6108d1670634ebdd597dd84860c01b6115ab565b7f000000000000000000000000000000000000000000000000000000000000000073ffffffffffffffffffffffffffffffffffffffff1663a9059cbb33836040518363ffffffff1660e01b815260040161092c9291906119ca565b6020604051808303816000875af115801561094b573d6000803e3d6000fd5b505050506040513d601f19601f8201168201806040525081019061096f9190611a2b565b5050565b62278d0081565b7f000000000000000000000000000000000000000000000000000000000000000081565b7f000000000000000000000000000000000000000000000000000000000000000081565b7f000000000000000000000000000000000000000000000000000000000000000081565b60006109fc67493ef8545ef1645560c01b6115ab565b610a1067b7af43d959ca6e3560c01b6115ab565b610a2467d9326355e26df92e60c01b6115ab565b62278d007f0000000000000000000000000000000000000000000000000000000000000000610a539190611996565b421015610a8b57610a6e6759eae25920494b1a60c01b6115ab565b610a82677ce8aa7028ef0c6560c01b6115ab565b60009050610cda565b610a9f678c0bfe875d756aeb60c01b6115ab565b610ab367e8e82fd020cd7e4860c01b6115ab565b610ac76734e6626d6370a57660c01b6115ab565b600062278d00807f0000000000000000000000000000000000000000000000000000000000000000610af99190611996565b42610b049190611a58565b610b0e9190611abb565b9050610b24674f8850fd2f33f8ba60c01b6115ab565b610b3867e8b2d99d8874c77460c01b6115ab565b6000600260008573ffffffffffffffffffffffffffffffffffffffff1673ffffffffffffffffffffffffffffffffffffffff168152602001908152602001600020604051806040016040529081600082015481526020016001820154815250509050610bae67965bc07f576e325a60c01b6115ab565b610bc267f68dff5ea882858a60c01b6115ab565b600060647f000000000000000000000000000000000000000000000000000000000000000084610bf29190611aec565b7f0000000000000000000000000000000000000000000000000000000000000000610c1d9190611996565b8360000151610c2c9190611aec565b610c369190611abb565b9050610c4c67f212832641bf4f9660c01b6115ab565b610c6067a99158e6dd6aecad60c01b6115ab565b8160000151811115610caf57610c8067b8016d098578a26060c01b6115ab565b610c9467068d1b5b3546d96060c01b6115ab565b81602001518260000151610ca89190611a58565b9350610cd6565b610cc367d90e0221bc374a0a60c01b6115ab565b816020015181610cd39190611a58565b93505b5050505b919050565b7f000000000000000000000000000000000000000000000000000000000000000081565b600160009054906101000a900473ffffffffffffffffffffffffffffffffffffffff1681565b6000610d3f6790d5d1fcb463356660c01b6115ab565b610d53677147bf316cf561a460c01b6115ab565b610d6767c3af3beb642f298b60c01b6115ab565b7f000000000000000000000000000000000000000000000000000000000000000073ffffffffffffffffffffffffffffffffffffffff166370a08231306040518263ffffffff1660e01b8152600401610dc091906116aa565b602060405180830381865afa158015610ddd573d6000803e3d6000fd5b505050506040513d601f19601f82011682018060405250810190610e019190611b5a565b905090565b6000610e1c673185fd2ee451051760c01b6115ab565b610e30672c02d5bc4607a72c60c01b6115ab565b610e4467e2572e71cceed3d760c01b6115ab565b610e586746f14274f73ef5ba60c01b6115ab565b610e6c671f23041c18ed138360c01b6115ab565b7f000000000000000000000000000000000000000000000000000000000000000042118015610ebb57507f00000000000000000000000000000000000000000000000000000000000000004211155b610efa576040517f08c379a0000000000000000000000000000000000000000000000000000000008152600401610ef190611bd3565b60405180910390fd5b610f0e6793f0cf21f71ed33560c01b6115ab565b610f2267ddff7eb80752dff360c01b6115ab565b610f366732e99ffeb574b4e860c01b6115ab565b610f4a67c785a691be9b9ae660c01b6115ab565b610f5e6744f92b68ec558e9960c01b6115ab565b610f72676eb2c4f2a569e81260c01b6115ab565b600080549050610f8c67edda69996e7fa1a260c01b6115ab565b610fa067262e9c13c9be511360c01b6115ab565b610fb467221c61440d90b9a460c01b6115ab565b60008111610ff7576040517f08c379a0000000000000000000000000000000000000000000000000000000008152600401610fee90611c3f565b60405180910390fd5b61100b676199ed6ddf55ae7c60c01b6115ab565b61101f672559fc6e5114d05060c01b6115ab565b611033678b6c3e759102de9060c01b6115ab565b60007f00000000000000000000000000000000000000000000000000000000000000007f0000000000000000000000000000000000000000000000000000000000000000346110829190611aec565b61108c9190611abb565b90506110a267fa2088bbbca9768a60c01b6115ab565b6110b667991b3bfa6d1667dc60c01b6115ab565b6110ca67eb36b62adc9c49dc60c01b6115ab565b6000811161110d576040517f08c379a000000000000000000000000000000000000000000000000000000000815260040161110490611cab565b60405180910390fd5b61112167792dd041296df4a460c01b6115ab565b611135672274e07277f76c8960c01b6115ab565b34925061114c6764a3ba91c12a646660c01b6115ab565b61116067cf90d5b70b765ad960c01b6115ab565b808210156112ad5761117c670f1f6c07971a423f60c01b6115ab565b6111906727b80ebeefd1865f60c01b6115ab565b7f00000000000000000000000000000000000000000000000000000000000000007f0000000000000000000000000000000000000000000000000000000000000000836111dd9190611aec565b6111e79190611abb565b92506111fd67a0af215251b90f7560c01b6115ab565b6112116720b0ed10acbd890d60c01b6115ab565b6000833461121f9190611a58565b90506112356769db3e344898e20e60c01b6115ab565b61124967ece004013cb1340360c01b6115ab565b3373ffffffffffffffffffffffffffffffffffffffff166108fc829081150290604051600060405180830381858888f1935050505015801561128f573d6000803e3d6000fd5b506112a46771ebad05ed62083260c01b6115ab565b829150506112c2565b6112c167242a861d2295d29860c01b6115ab565b5b6112d66740a7649c8d156fe360c01b6115ab565b80600260003373ffffffffffffffffffffffffffffffffffffffff1673ffffffffffffffffffffffffffffffffffffffff16815260200190815260200160002060000160008282546113289190611996565b925050819055506113436731a34e6eee38617f60c01b6115ab565b6113576732ffeea40233baa860c01b6115ab565b80600080828254039250508190555061137a67e6e7ac2b70fb2c7e60c01b6115ab565b61138e6701ea848dcf4a1cfc60c01b6115ab565b3373ffffffffffffffffffffffffffffffffffffffff167f12cb4648cf3058b17ceeb33e579f8b0bc269fe0843f3900b8e24b6c54871703c82346040516113d6929190611672565b60405180910390a2505090565b7f000000000000000000000000000000000000000000000000000000000000000081565b60005481565b7f000000000000000000000000000000000000000000000000000000000000000081565b611445670b626456ec9a591e60c01b6115ab565b61145967fc316a87b8ab908d60c01b6115ab565b61146d67e555a3eda3038b9a60c01b6115ab565b3373ffffffffffffffffffffffffffffffffffffffff168173ffffffffffffffffffffffffffffffffffffffff16036114d6576114b467d5c4e7782ba529e760c01b6115ab565b6114c86720776f1f627ce63c60c01b6115ab565b6114d0610e06565b50611584565b6114ea67eea7dcaf5d1a006d60c01b6115ab565b6114fe67fc965958f8d5485b60c01b6115ab565b8073ffffffffffffffffffffffffffffffffffffffff166108fc60647f0000000000000000000000000000000000000000000000000000000000000000611543610e06565b61154d9190611aec565b6115579190611abb565b9081150290604051600060405180830381858888f19350505050158015611582573d6000803e3d6000fd5b505b50565b7f000000000000000000000000000000000000000000000000000000000000000081565b50565b6000819050919050565b6115c1816115ae565b82525050565b60006020820190506115dc60008301846115b8565b92915050565b600080fd5b600073ffffffffffffffffffffffffffffffffffffffff82169050919050565b6000611612826115e7565b9050919050565b61162281611607565b811461162d57600080fd5b50565b60008135905061163f81611619565b92915050565b60006020828403121561165b5761165a6115e2565b5b600061166984828501611630565b91505092915050565b600060408201905061168760008301856115b8565b61169460208301846115b8565b9392505050565b6116a481611607565b82525050565b60006020820190506116bf600083018461169b565b92915050565b60006116d0826115e7565b9050919050565b6116e0816116c5565b82525050565b60006020820190506116fb60008301846116d7565b92915050565b61170a816116c5565b811461171557600080fd5b50565b60008135905061172781611701565b92915050565b600060208284031215611743576117426115e2565b5b600061175184828501611718565b91505092915050565b600082825260208201905092915050565b7f436c61696d3a207065726d697373696f6e2064656e6965640000000000000000600082015250565b60006117a160188361175a565b91506117ac8261176b565b602082019050919050565b600060208201905081810360008301526117d081611794565b9050919050565b7f50726573616c653a2050726573616c6520686173206e6f7420656e646564207960008201527f6574000000000000000000000000000000000000000000000000000000000000602082015250565b600061183360228361175a565b915061183e826117d7565b604082019050919050565b6000602082019050818103600083015261186281611826565b9050919050565b7f436c61696d3a206e6f20746f6b656e7320746f20636c61696d00000000000000600082015250565b600061189f60198361175a565b91506118aa82611869565b602082019050919050565b600060208201905081810360008301526118ce81611892565b9050919050565b7f436c61696d3a204e6f7420656e6f75676820746f6b656e7320696e207468652060008201527f636f6e7472616374000000000000000000000000000000000000000000000000602082015250565b600061193160288361175a565b915061193c826118d5565b604082019050919050565b6000602082019050818103600083015261196081611924565b9050919050565b7f4e487b7100000000000000000000000000000000000000000000000000000000600052601160045260246000fd5b60006119a1826115ae565b91506119ac836115ae565b92508282019050808211156119c4576119c3611967565b5b92915050565b60006040820190506119df600083018561169b565b6119ec60208301846115b8565b9392505050565b60008115159050919050565b611a08816119f3565b8114611a1357600080fd5b50565b600081519050611a25816119ff565b92915050565b600060208284031215611a4157611a406115e2565b5b6000611a4f84828501611a16565b91505092915050565b6000611a63826115ae565b9150611a6e836115ae565b9250828203905081811115611a8657611a85611967565b5b92915050565b7f4e487b7100000000000000000000000000000000000000000000000000000000600052601260045260246000fd5b6000611ac6826115ae565b9150611ad1836115ae565b925082611ae157611ae0611a8c565b5b828204905092915050565b6000611af7826115ae565b9150611b02836115ae565b9250828202611b10816115ae565b91508282048414831517611b2757611b26611967565b5b5092915050565b611b37816115ae565b8114611b4257600080fd5b50565b600081519050611b5481611b2e565b92915050565b600060208284031215611b7057611b6f6115e2565b5b6000611b7e84828501611b45565b91505092915050565b7f50726573616c653a2050726573616c65206973206e6f74206163746976650000600082015250565b6000611bbd601e8361175a565b9150611bc882611b87565b602082019050919050565b60006020820190508181036000830152611bec81611bb0565b9050919050565b7f50726573616c653a204e6f20746f6b656e73206c656674000000000000000000600082015250565b6000611c2960178361175a565b9150611c3482611bf3565b602082019050919050565b60006020820190508181036000830152611c5881611c1c565b9050919050565b7f50726573616c653a20496e73756666696369656e742066756e64730000000000600082015250565b6000611c95601b8361175a565b9150611ca082611c5f565b602082019050919050565b60006020820190508181036000830152611cc481611c88565b905091905056fea26469706673582212208901e05c741f3613229250f29913c5c1e0c10426ec1717a8bb7f33ec196210c364736f6c63430008120033",
  "linkReferences": {},
  "deployedLinkReferences": {}
}