{
  "_format": "hh-sol-artifact-1",
  "contractName": "Presale",
  "sourceName": "contracts/Presale.sol",
  "abi": [
    {
      "inputs": [
        {
          "internalType": "address",
          "name": "_token",
          "type": "address"
        },
        {
          "internalType": "uint256",
          "name": "_supply",
          "type": "uint256"
        },
        {
          "internalType": "uint256",
          "name": "_startTimestamp",
          "type": "uint256"
        },
        {
          "internalType": "uint256",
          "name": "_presalePeriod",
          "type": "uint256"
        },
        {
          "internalType": "uint256",
          "name": "_price",
          "type": "uint256"
        }
      ],
      "stateMutability": "nonpayable",
      "type": "constructor"
    },
    {
      "anonymous": false,
      "inputs": [
        {
          "indexed": true,
          "internalType": "address",
          "name": "previousOwner",
          "type": "address"
        },
        {
          "indexed": true,
          "internalType": "address",
          "name": "newOwner",
          "type": "address"
        }
      ],
      "name": "OwnershipTransferred",
      "type": "event"
    },
    {
      "anonymous": false,
      "inputs": [
        {
          "indexed": true,
          "internalType": "address",
          "name": "user",
          "type": "address"
        },
        {
          "indexed": false,
          "internalType": "uint256",
          "name": "tokensBought",
          "type": "uint256"
        },
        {
          "indexed": false,
          "internalType": "uint256",
          "name": "amountPaid",
          "type": "uint256"
        }
      ],
      "name": "Purchase",
      "type": "event"
    },
    {
      "inputs": [],
      "name": "CLIFF_VESTING_SHARE",
      "outputs": [
        {
          "internalType": "uint256",
          "name": "",
          "type": "uint256"
        }
      ],
      "stateMutability": "view",
      "type": "function"
    },
    {
      "inputs": [],
      "name": "MONTHLY_VESTING_SHARE",
      "outputs": [
        {
          "internalType": "uint256",
          "name": "",
          "type": "uint256"
        }
      ],
      "stateMutability": "view",
      "type": "function"
    },
    {
      "inputs": [],
      "name": "PRICE",
      "outputs": [
        {
          "internalType": "uint256",
          "name": "",
          "type": "uint256"
        }
      ],
      "stateMutability": "view",
      "type": "function"
    },
    {
      "inputs": [],
      "name": "REF_SHARE",
      "outputs": [
        {
          "internalType": "uint256",
          "name": "",
          "type": "uint256"
        }
      ],
      "stateMutability": "view",
      "type": "function"
    },
    {
      "inputs": [],
      "name": "START_TIME",
      "outputs": [
        {
          "internalType": "uint256",
          "name": "",
          "type": "uint256"
        }
      ],
      "stateMutability": "view",
      "type": "function"
    },
    {
      "inputs": [],
      "name": "TOKEN",
      "outputs": [
        {
          "internalType": "address",
          "name": "",
          "type": "address"
        }
      ],
      "stateMutability": "view",
      "type": "function"
    },
    {
      "inputs": [],
      "name": "VESTING_CLIFF",
      "outputs": [
        {
          "internalType": "uint256",
          "name": "",
          "type": "uint256"
        }
      ],
      "stateMutability": "view",
      "type": "function"
    },
    {
      "inputs": [],
      "name": "amountLeft",
      "outputs": [
        {
          "internalType": "uint256",
          "name": "",
          "type": "uint256"
        }
      ],
      "stateMutability": "view",
      "type": "function"
    },
    {
      "inputs": [],
      "name": "buy",
      "outputs": [
        {
          "internalType": "uint256",
          "name": "nativeForTokens",
          "type": "uint256"
        }
      ],
      "stateMutability": "payable",
      "type": "function"
    },
    {
      "inputs": [
        {
          "internalType": "address payable",
          "name": "referral",
          "type": "address"
        }
      ],
      "name": "buy",
      "outputs": [],
      "stateMutability": "payable",
      "type": "function"
    },
    {
      "inputs": [],
      "name": "claim",
      "outputs": [],
      "stateMutability": "nonpayable",
      "type": "function"
    },
    {
      "inputs": [
        {
          "internalType": "address",
          "name": "user",
          "type": "address"
        }
      ],
      "name": "claimableAmount",
      "outputs": [
        {
          "internalType": "uint256",
          "name": "amountToClaim",
          "type": "uint256"
        }
      ],
      "stateMutability": "view",
      "type": "function"
    },
    {
      "inputs": [],
      "name": "endPresale",
      "outputs": [],
      "stateMutability": "nonpayable",
      "type": "function"
    },
    {
      "inputs": [],
      "name": "endTime",
      "outputs": [
        {
          "internalType": "uint256",
          "name": "",
          "type": "uint256"
        }
      ],
      "stateMutability": "view",
      "type": "function"
    },
    {
      "inputs": [],
      "name": "owner",
      "outputs": [
        {
          "internalType": "address",
          "name": "",
          "type": "address"
        }
      ],
      "stateMutability": "view",
      "type": "function"
    },
    {
      "inputs": [],
      "name": "renounceOwnership",
      "outputs": [],
      "stateMutability": "nonpayable",
      "type": "function"
    },
    {
      "inputs": [],
      "name": "tokenBalance",
      "outputs": [
        {
          "internalType": "uint256",
          "name": "",
          "type": "uint256"
        }
      ],
      "stateMutability": "view",
      "type": "function"
    },
    {
      "inputs": [
        {
          "internalType": "address",
          "name": "newOwner",
          "type": "address"
        }
      ],
      "name": "transferOwnership",
      "outputs": [],
      "stateMutability": "nonpayable",
      "type": "function"
    },
    {
      "inputs": [
        {
          "internalType": "address",
          "name": "",
          "type": "address"
        }
      ],
      "name": "userVesting",
      "outputs": [
        {
          "internalType": "uint256",
          "name": "totalAmount",
          "type": "uint256"
        },
        {
          "internalType": "uint256",
          "name": "claimedAmount",
          "type": "uint256"
        }
      ],
      "stateMutability": "view",
      "type": "function"
    },
    {
      "inputs": [],
      "name": "withdraw",
      "outputs": [],
      "stateMutability": "nonpayable",
      "type": "function"
    }
  ],
  "bytecode": "6101006040523480156200001257600080fd5b50604051620013533803806200135383398101604081905262000035916200015f565b62000040336200010f565b6001600160a01b03851660a05260c0839052620000618262015180620001cc565b6200006d9084620001ec565b6001819055508060e0818152505060a0516001600160a01b031663313ce5676040518163ffffffff1660e01b8152600401602060405180830381865afa158015620000bc573d6000803e3d6000fd5b505050506040513d601f19601f82011682018060405250810190620000e2919062000202565b620000ef90600a6200032b565b6080819052620001009085620001cc565b600255506200033c9350505050565b600080546001600160a01b038381166001600160a01b0319831681178455604051919092169283917f8be0079c531659141344cd1fd0a4f28419497f9722a3daafe3b4186f6b6457e09190a35050565b600080600080600060a086880312156200017857600080fd5b85516001600160a01b03811681146200019057600080fd5b602087015160408801516060890151608090990151929a91995097965090945092505050565b634e487b7160e01b600052601160045260246000fd5b8082028115828204841417620001e657620001e6620001b6565b92915050565b80820180821115620001e657620001e6620001b6565b6000602082840312156200021557600080fd5b815160ff811681146200022757600080fd5b9392505050565b600181815b808511156200026f578160001904821115620002535762000253620001b6565b808516156200026157918102915b93841c939080029062000233565b509250929050565b6000826200028857506001620001e6565b816200029757506000620001e6565b8160018114620002b05760028114620002bb57620002db565b6001915050620001e6565b60ff841115620002cf57620002cf620001b6565b50506001821b620001e6565b5060208310610133831016604e8410600b841016171562000300575081810a620001e6565b6200030c83836200022e565b8060001904821115620003235762000323620001b6565b029392505050565b60006200022760ff84168362000277565b60805160a05160c05160e051610fac620003a7600039600081816102ce01528181610a540152610b4401526000818161035f015281816108980152610950015260008181610255015281816106460152610809015260008181610a780152610b200152610fac6000f3fe60806040526004361061015f5760003560e01c80638da5cb5b116100c0578063e011ac8711610074578063f088d54711610059578063f088d547146103ac578063f2fde38b146103bf578063f3256483146103df57600080fd5b8063e011ac8714610381578063ee26671c1461039757600080fd5b8063a43be57b116100a5578063a43be57b14610330578063a6f2ae3a14610345578063ddaa26ad1461034d57600080fd5b80638da5cb5b146102f05780639e1a4d191461031b57600080fd5b8063715018a61161011757806382bfefc8116100fc57806382bfefc814610243578063898850491461029c5780638d859f3e146102bc57600080fd5b8063715018a6146102195780637c1862781461022e57600080fd5b80634b128cd5116101485780634b128cd5146101a45780634e71d92d146101ed57806363f3dbe51461020257600080fd5b80633197cbb6146101645780633ccfd60b1461018d575b600080fd5b34801561017057600080fd5b5061017a60015481565b6040519081526020015b60405180910390f35b34801561019957600080fd5b506101a26103f4565b005b3480156101b057600080fd5b506101d86101bf366004610e6a565b6003602052600090815260409020805460019091015482565b60408051928352602083019190915201610184565b3480156101f957600080fd5b506101a26104dc565b34801561020e57600080fd5b5061017a62278d0081565b34801561022557600080fd5b506101a26106cc565b34801561023a57600080fd5b5061017a600581565b34801561024f57600080fd5b506102777f000000000000000000000000000000000000000000000000000000000000000081565b60405173ffffffffffffffffffffffffffffffffffffffff9091168152602001610184565b3480156102a857600080fd5b5061017a6102b7366004610e6a565b6106e0565b3480156102c857600080fd5b5061017a7f000000000000000000000000000000000000000000000000000000000000000081565b3480156102fc57600080fd5b5060005473ffffffffffffffffffffffffffffffffffffffff16610277565b34801561032757600080fd5b5061017a6107d8565b34801561033c57600080fd5b506101a261088e565b61017a61094c565b34801561035957600080fd5b5061017a7f000000000000000000000000000000000000000000000000000000000000000081565b34801561038d57600080fd5b5061017a60025481565b3480156103a357600080fd5b5061017a602881565b6101a26103ba366004610e6a565b610c17565b3480156103cb57600080fd5b506101a26103da366004610e6a565b610c9e565b3480156103eb57600080fd5b5061017a601481565b6103fc610d52565b6001544211610492576040517f08c379a000000000000000000000000000000000000000000000000000000000815260206004820152602260248201527f50726573616c653a2050726573616c6520686173206e6f7420656e646564207960448201527f657400000000000000000000000000000000000000000000000000000000000060648201526084015b60405180910390fd5b6000805460405173ffffffffffffffffffffffffffffffffffffffff909116914780156108fc02929091818181858888f193505050501580156104d9573d6000803e3d6000fd5b50565b60006104e7336106e0565b905060008111610553576040517f08c379a000000000000000000000000000000000000000000000000000000000815260206004820152601960248201527f436c61696d3a206e6f20746f6b656e7320746f20636c61696d000000000000006044820152606401610489565b61055b6107d8565b8111156105ea576040517f08c379a000000000000000000000000000000000000000000000000000000000815260206004820152602860248201527f436c61696d3a204e6f7420656e6f75676820746f6b656e7320696e207468652060448201527f636f6e74726163740000000000000000000000000000000000000000000000006064820152608401610489565b336000908152600360205260408120600101805483929061060c908490610ebd565b90915550506040517fa9059cbb000000000000000000000000000000000000000000000000000000008152336004820152602481018290527f000000000000000000000000000000000000000000000000000000000000000073ffffffffffffffffffffffffffffffffffffffff169063a9059cbb906044016020604051808303816000875af11580156106a4573d6000803e3d6000fd5b505050506040513d601f19601f820116820180604052508101906106c89190610ed6565b5050565b6106d4610d52565b6106de6000610dd3565b565b600062278d006001546106f39190610ebd565b42101561070257506000919050565b600062278d00806001546107169190610ebd565b6107209042610ef8565b61072a9190610f0b565b73ffffffffffffffffffffffffffffffffffffffff8416600090815260036020908152604080832081518083019092528054825260010154918101919091529192506064610779601485610f46565b610784906028610ebd565b83516107909190610f46565b61079a9190610f0b565b82519091508111156107be57602082015182516107b79190610ef8565b93506107d0565b60208201516107cd9082610ef8565b93505b505050919050565b6040517f70a082310000000000000000000000000000000000000000000000000000000081523060048201526000907f000000000000000000000000000000000000000000000000000000000000000073ffffffffffffffffffffffffffffffffffffffff16906370a0823190602401602060405180830381865afa158015610865573d6000803e3d6000fd5b505050506040513d601f19601f820116820180604052508101906108899190610f5d565b905090565b610896610d52565b7f0000000000000000000000000000000000000000000000000000000000000000421015610946576040517f08c379a000000000000000000000000000000000000000000000000000000000815260206004820152602260248201527f50726573616c653a2050726573616c6520686173206e6f7420656e646564207960448201527f65740000000000000000000000000000000000000000000000000000000000006064820152608401610489565b42600155565b60007f0000000000000000000000000000000000000000000000000000000000000000421015801561098057506001544211155b6109e6576040517f08c379a000000000000000000000000000000000000000000000000000000000815260206004820152601e60248201527f50726573616c653a2050726573616c65206973206e6f742061637469766500006044820152606401610489565b60025480610a50576040517f08c379a000000000000000000000000000000000000000000000000000000000815260206004820152601760248201527f50726573616c653a204e6f20746f6b656e73206c6566740000000000000000006044820152606401610489565b60007f0000000000000000000000000000000000000000000000000000000000000000610a9d7f000000000000000000000000000000000000000000000000000000000000000034610f46565b610aa79190610f0b565b905060008111610b13576040517f08c379a000000000000000000000000000000000000000000000000000000000815260206004820152601b60248201527f50726573616c653a20496e73756666696369656e742066756e647300000000006044820152606401610489565b34925080821015610b7d577f0000000000000000000000000000000000000000000000000000000000000000610b697f000000000000000000000000000000000000000000000000000000000000000084610f46565b610b739190610f0b565b4260015592508190505b33600090815260036020526040902080548201905560028054829003905534831015610bd7576040513390348086146108fc029190869003906000818181858888f19350505050158015610bd5573d6000803e3d6000fd5b505b604080518281526020810185905233917f12cb4648cf3058b17ceeb33e579f8b0bc269fe0843f3900b8e24b6c54871703c910160405180910390a2505090565b3373ffffffffffffffffffffffffffffffffffffffff821603610c3c576106c861094c565b8073ffffffffffffffffffffffffffffffffffffffff166108fc60646005610c6261094c565b610c6c9190610f46565b610c769190610f0b565b6040518115909202916000818181858888f193505050501580156106c8573d6000803e3d6000fd5b610ca6610d52565b73ffffffffffffffffffffffffffffffffffffffff8116610d49576040517f08c379a000000000000000000000000000000000000000000000000000000000815260206004820152602660248201527f4f776e61626c653a206e6577206f776e657220697320746865207a65726f206160448201527f64647265737300000000000000000000000000000000000000000000000000006064820152608401610489565b6104d981610dd3565b60005473ffffffffffffffffffffffffffffffffffffffff1633146106de576040517f08c379a000000000000000000000000000000000000000000000000000000000815260206004820181905260248201527f4f776e61626c653a2063616c6c6572206973206e6f7420746865206f776e65726044820152606401610489565b6000805473ffffffffffffffffffffffffffffffffffffffff8381167fffffffffffffffffffffffff0000000000000000000000000000000000000000831681178455604051919092169283917f8be0079c531659141344cd1fd0a4f28419497f9722a3daafe3b4186f6b6457e09190a35050565b73ffffffffffffffffffffffffffffffffffffffff811681146104d957600080fd5b600060208284031215610e7c57600080fd5b8135610e8781610e48565b9392505050565b7f4e487b7100000000000000000000000000000000000000000000000000000000600052601160045260246000fd5b80820180821115610ed057610ed0610e8e565b92915050565b600060208284031215610ee857600080fd5b81518015158114610e8757600080fd5b81810381811115610ed057610ed0610e8e565b600082610f41577f4e487b7100000000000000000000000000000000000000000000000000000000600052601260045260246000fd5b500490565b8082028115828204841417610ed057610ed0610e8e565b600060208284031215610f6f57600080fd5b505191905056fea2646970667358221220d89e787418fffba8889f0f51b2d45ffd9af9abac9ef4baaf69c607bc34df025764736f6c63430008120033000000000000000000000000e3073d46a4d8442a8d3ffaf8fea8f1e247fc25650000000000000000000000000000000000000000000000000000000000b71b0000000000000000000000000000000000000000000000000000000000646f77f0000000000000000000000000000000000000000000000000000000000000000700000000000000000000000000000000000000000000000000000b5e620f4800",
  "deployedBytecode": "0x6080604052600436106101095760003560e01c80638d859f3e11610095578063ddaa26ad11610064578063ddaa26ad1461032d578063e011ac8714610358578063ee26671c14610383578063f088d547146103ae578063f3256483146103ca57610109565b80638d859f3e1461028e5780638da5cb5b146102b95780639e1a4d19146102e4578063a6f2ae3a1461030f57610109565b806363f3dbe5116100dc57806363f3dbe5146101a55780636b6a1fae146101d05780637c186278146101fb57806382bfefc814610226578063898850491461025157610109565b806337ba682d1461010e5780633ccfd60b146101395780634b128cd5146101505780634e71d92d1461018e575b600080fd5b34801561011a57600080fd5b506101236103f5565b60405161013091906115c7565b60405180910390f35b34801561014557600080fd5b5061014e610419565b005b34801561015c57600080fd5b5061017760048036038101906101729190611645565b6106a2565b604051610185929190611672565b60405180910390f35b34801561019a57600080fd5b506101a36106c6565b005b3480156101b157600080fd5b506101ba610973565b6040516101c791906115c7565b60405180910390f35b3480156101dc57600080fd5b506101e561097a565b6040516101f291906115c7565b60405180910390f35b34801561020757600080fd5b5061021061099e565b60405161021d91906115c7565b60405180910390f35b34801561023257600080fd5b5061023b6109c2565b60405161024891906116aa565b60405180910390f35b34801561025d57600080fd5b5061027860048036038101906102739190611645565b6109e6565b60405161028591906115c7565b60405180910390f35b34801561029a57600080fd5b506102a3610cdf565b6040516102b091906115c7565b60405180910390f35b3480156102c557600080fd5b506102ce610d03565b6040516102db91906116e6565b60405180910390f35b3480156102f057600080fd5b506102f9610d29565b60405161030691906115c7565b60405180910390f35b610317610e06565b60405161032491906115c7565b60405180910390f35b34801561033957600080fd5b506103426113e3565b60405161034f91906115c7565b60405180910390f35b34801561036457600080fd5b5061036d611407565b60405161037a91906115c7565b60405180910390f35b34801561038f57600080fd5b5061039861140d565b6040516103a591906115c7565b60405180910390f35b6103c860048036038101906103c3919061172d565b611431565b005b3480156103d657600080fd5b506103df611587565b6040516103ec91906115c7565b60405180910390f35b7f000000000000000000000000000000000000000000000000000000000000000081565b61042d6711b7aba7b071e48660c01b6115ab565b61044167899e82afe13cc7ae60c01b6115ab565b61045567bc9fab4e89619a8360c01b6115ab565b610469675eb1fa6268033c3660c01b6115ab565b61047d67fb31850e26eda36060c01b6115ab565b600160009054906101000a900473ffffffffffffffffffffffffffffffffffffffff1673ffffffffffffffffffffffffffffffffffffffff163373ffffffffffffffffffffffffffffffffffffffff161461050d576040517f08c379a0000000000000000000000000000000000000000000000000000000008152600401610504906117b7565b60405180910390fd5b610521679913f8e251498a6e60c01b6115ab565b61053567e3ae796039a7bddf60c01b6115ab565b610549673823d1e1471e025260c01b6115ab565b61055d672d2af3df761a458d60c01b6115ab565b61057167970e10b6474a19a360c01b6115ab565b61058567ed439d9cda5759e460c01b6115ab565b6105996761b2edb544047d4360c01b6115ab565b7f000000000000000000000000000000000000000000000000000000000000000042116105fb576040517f08c379a00000000000000000000000000000000000000000000000000000000081526004016105f290611849565b60405180910390fd5b61060f67a4cc8bbea41bdf3060c01b6115ab565b61062367a0d2f5860be8e46860c01b6115ab565b6106376771ac7c75fc3b99c260c01b6115ab565b600160009054906101000a900473ffffffffffffffffffffffffffffffffffffffff1673ffffffffffffffffffffffffffffffffffffffff166108fc479081150290604051600060405180830381858888f1935050505015801561069f573d6000803e3d6000fd5b50565b60026020528060005260406000206000915090508060000154908060010154905082565b6106da677ab7d8a4254faab560c01b6115ab565b6106ee675a76440bb3b5aa5c60c01b6115ab565b61070267f099031922e5a99c60c01b6115ab565b600061070d336109e6565b905061072367acb69e2abb90261260c01b6115ab565b6107376763a0c08ca2560ae760c01b6115ab565b61074b6781836ee9b9be3b6160c01b6115ab565b6000811161078e576040517f08c379a0000000000000000000000000000000000000000000000000000000008152600401610785906118b5565b60405180910390fd5b6107a26733091351e4c3598260c01b6115ab565b6107b66773ea85c502ac546a60c01b6115ab565b6107ca672b1c064e5edf76eb60c01b6115ab565b6107de67e32d6b566b1e942660c01b6115ab565b6107e6610d29565b811115610828576040517f08c379a000000000000000000000000000000000000000000000000000000000815260040161081f90611947565b60405180910390fd5b61083c670a9b25f4c2af9fd460c01b6115ab565b61085067c412b231cc7e8f2d60c01b6115ab565b80600260003373ffffffffffffffffffffffffffffffffffffffff1673ffffffffffffffffffffffffffffffffffffffff16815260200190815260200160002060010160008282546108a29190611996565b925050819055506108bd679151c547dc4b5dc460c01b6115ab565b6108d1670634ebdd597dd84860c01b6115ab565b7f000000000000000000000000000000000000000000000000000000000000000073ffffffffffffffffffffffffffffffffffffffff1663a9059cbb33836040518363ffffffff1660e01b815260040161092c9291906119ca565b6020604051808303816000875af115801561094b573d6000803e3d6000fd5b505050506040513d601f19601f8201168201806040525081019061096f9190611a2b565b5050565b62278d0081565b7f000000000000000000000000000000000000000000000000000000000000000081565b7f000000000000000000000000000000000000000000000000000000000000000081565b7f000000000000000000000000000000000000000000000000000000000000000081565b60006109fc67493ef8545ef1645560c01b6115ab565b610a1067b7af43d959ca6e3560c01b6115ab565b610a2467d9326355e26df92e60c01b6115ab565b62278d007f0000000000000000000000000000000000000000000000000000000000000000610a539190611996565b421015610a8b57610a6e6759eae25920494b1a60c01b6115ab565b610a82677ce8aa7028ef0c6560c01b6115ab565b60009050610cda565b610a9f678c0bfe875d756aeb60c01b6115ab565b610ab367e8e82fd020cd7e4860c01b6115ab565b610ac76734e6626d6370a57660c01b6115ab565b600062278d00807f0000000000000000000000000000000000000000000000000000000000000000610af99190611996565b42610b049190611a58565b610b0e9190611abb565b9050610b24674f8850fd2f33f8ba60c01b6115ab565b610b3867e8b2d99d8874c77460c01b6115ab565b6000600260008573ffffffffffffffffffffffffffffffffffffffff1673ffffffffffffffffffffffffffffffffffffffff168152602001908152602001600020604051806040016040529081600082015481526020016001820154815250509050610bae67965bc07f576e325a60c01b6115ab565b610bc267f68dff5ea882858a60c01b6115ab565b600060647f000000000000000000000000000000000000000000000000000000000000000084610bf29190611aec565b7f0000000000000000000000000000000000000000000000000000000000000000610c1d9190611996565b8360000151610c2c9190611aec565b610c369190611abb565b9050610c4c67f212832641bf4f9660c01b6115ab565b610c6067a99158e6dd6aecad60c01b6115ab565b8160000151811115610caf57610c8067b8016d098578a26060c01b6115ab565b610c9467068d1b5b3546d96060c01b6115ab565b81602001518260000151610ca89190611a58565b9350610cd6565b610cc367d90e0221bc374a0a60c01b6115ab565b816020015181610cd39190611a58565b93505b5050505b919050565b7f000000000000000000000000000000000000000000000000000000000000000081565b600160009054906101000a900473ffffffffffffffffffffffffffffffffffffffff1681565b6000610d3f6790d5d1fcb463356660c01b6115ab565b610d53677147bf316cf561a460c01b6115ab565b610d6767c3af3beb642f298b60c01b6115ab565b7f000000000000000000000000000000000000000000000000000000000000000073ffffffffffffffffffffffffffffffffffffffff166370a08231306040518263ffffffff1660e01b8152600401610dc091906116aa565b602060405180830381865afa158015610ddd573d6000803e3d6000fd5b505050506040513d601f19601f82011682018060405250810190610e019190611b5a565b905090565b6000610e1c673185fd2ee451051760c01b6115ab565b610e30672c02d5bc4607a72c60c01b6115ab565b610e4467e2572e71cceed3d760c01b6115ab565b610e586746f14274f73ef5ba60c01b6115ab565b610e6c671f23041c18ed138360c01b6115ab565b7f000000000000000000000000000000000000000000000000000000000000000042118015610ebb57507f00000000000000000000000000000000000000000000000000000000000000004211155b610efa576040517f08c379a0000000000000000000000000000000000000000000000000000000008152600401610ef190611bd3565b60405180910390fd5b610f0e6793f0cf21f71ed33560c01b6115ab565b610f2267ddff7eb80752dff360c01b6115ab565b610f366732e99ffeb574b4e860c01b6115ab565b610f4a67c785a691be9b9ae660c01b6115ab565b610f5e6744f92b68ec558e9960c01b6115ab565b610f72676eb2c4f2a569e81260c01b6115ab565b600080549050610f8c67edda69996e7fa1a260c01b6115ab565b610fa067262e9c13c9be511360c01b6115ab565b610fb467221c61440d90b9a460c01b6115ab565b60008111610ff7576040517f08c379a0000000000000000000000000000000000000000000000000000000008152600401610fee90611c3f565b60405180910390fd5b61100b676199ed6ddf55ae7c60c01b6115ab565b61101f672559fc6e5114d05060c01b6115ab565b611033678b6c3e759102de9060c01b6115ab565b60007f00000000000000000000000000000000000000000000000000000000000000007f0000000000000000000000000000000000000000000000000000000000000000346110829190611aec565b61108c9190611abb565b90506110a267fa2088bbbca9768a60c01b6115ab565b6110b667991b3bfa6d1667dc60c01b6115ab565b6110ca67eb36b62adc9c49dc60c01b6115ab565b6000811161110d576040517f08c379a000000000000000000000000000000000000000000000000000000000815260040161110490611cab565b60405180910390fd5b61112167792dd041296df4a460c01b6115ab565b611135672274e07277f76c8960c01b6115ab565b34925061114c6764a3ba91c12a646660c01b6115ab565b61116067cf90d5b70b765ad960c01b6115ab565b808210156112ad5761117c670f1f6c07971a423f60c01b6115ab565b6111906727b80ebeefd1865f60c01b6115ab565b7f00000000000000000000000000000000000000000000000000000000000000007f0000000000000000000000000000000000000000000000000000000000000000836111dd9190611aec565b6111e79190611abb565b92506111fd67a0af215251b90f7560c01b6115ab565b6112116720b0ed10acbd890d60c01b6115ab565b6000833461121f9190611a58565b90506112356769db3e344898e20e60c01b6115ab565b61124967ece004013cb1340360c01b6115ab565b3373ffffffffffffffffffffffffffffffffffffffff166108fc829081150290604051600060405180830381858888f1935050505015801561128f573d6000803e3d6000fd5b506112a46771ebad05ed62083260c01b6115ab565b829150506112c2565b6112c167242a861d2295d29860c01b6115ab565b5b6112d66740a7649c8d156fe360c01b6115ab565b80600260003373ffffffffffffffffffffffffffffffffffffffff1673ffffffffffffffffffffffffffffffffffffffff16815260200190815260200160002060000160008282546113289190611996565b925050819055506113436731a34e6eee38617f60c01b6115ab565b6113576732ffeea40233baa860c01b6115ab565b80600080828254039250508190555061137a67e6e7ac2b70fb2c7e60c01b6115ab565b61138e6701ea848dcf4a1cfc60c01b6115ab565b3373ffffffffffffffffffffffffffffffffffffffff167f12cb4648cf3058b17ceeb33e579f8b0bc269fe0843f3900b8e24b6c54871703c82346040516113d6929190611672565b60405180910390a2505090565b7f000000000000000000000000000000000000000000000000000000000000000081565b60005481565b7f000000000000000000000000000000000000000000000000000000000000000081565b611445670b626456ec9a591e60c01b6115ab565b61145967fc316a87b8ab908d60c01b6115ab565b61146d67e555a3eda3038b9a60c01b6115ab565b3373ffffffffffffffffffffffffffffffffffffffff168173ffffffffffffffffffffffffffffffffffffffff16036114d6576114b467d5c4e7782ba529e760c01b6115ab565b6114c86720776f1f627ce63c60c01b6115ab565b6114d0610e06565b50611584565b6114ea67eea7dcaf5d1a006d60c01b6115ab565b6114fe67fc965958f8d5485b60c01b6115ab565b8073ffffffffffffffffffffffffffffffffffffffff166108fc60647f0000000000000000000000000000000000000000000000000000000000000000611543610e06565b61154d9190611aec565b6115579190611abb565b9081150290604051600060405180830381858888f19350505050158015611582573d6000803e3d6000fd5b505b50565b7f000000000000000000000000000000000000000000000000000000000000000081565b50565b6000819050919050565b6115c1816115ae565b82525050565b60006020820190506115dc60008301846115b8565b92915050565b600080fd5b600073ffffffffffffffffffffffffffffffffffffffff82169050919050565b6000611612826115e7565b9050919050565b61162281611607565b811461162d57600080fd5b50565b60008135905061163f81611619565b92915050565b60006020828403121561165b5761165a6115e2565b5b600061166984828501611630565b91505092915050565b600060408201905061168760008301856115b8565b61169460208301846115b8565b9392505050565b6116a481611607565b82525050565b60006020820190506116bf600083018461169b565b92915050565b60006116d0826115e7565b9050919050565b6116e0816116c5565b82525050565b60006020820190506116fb60008301846116d7565b92915050565b61170a816116c5565b811461171557600080fd5b50565b60008135905061172781611701565b92915050565b600060208284031215611743576117426115e2565b5b600061175184828501611718565b91505092915050565b600082825260208201905092915050565b7f436c61696d3a207065726d697373696f6e2064656e6965640000000000000000600082015250565b60006117a160188361175a565b91506117ac8261176b565b602082019050919050565b600060208201905081810360008301526117d081611794565b9050919050565b7f50726573616c653a2050726573616c6520686173206e6f7420656e646564207960008201527f6574000000000000000000000000000000000000000000000000000000000000602082015250565b600061183360228361175a565b915061183e826117d7565b604082019050919050565b6000602082019050818103600083015261186281611826565b9050919050565b7f436c61696d3a206e6f20746f6b656e7320746f20636c61696d00000000000000600082015250565b600061189f60198361175a565b91506118aa82611869565b602082019050919050565b600060208201905081810360008301526118ce81611892565b9050919050565b7f436c61696d3a204e6f7420656e6f75676820746f6b656e7320696e207468652060008201527f636f6e7472616374000000000000000000000000000000000000000000000000602082015250565b600061193160288361175a565b915061193c826118d5565b604082019050919050565b6000602082019050818103600083015261196081611924565b9050919050565b7f4e487b7100000000000000000000000000000000000000000000000000000000600052601160045260246000fd5b60006119a1826115ae565b91506119ac836115ae565b92508282019050808211156119c4576119c3611967565b5b92915050565b60006040820190506119df600083018561169b565b6119ec60208301846115b8565b9392505050565b60008115159050919050565b611a08816119f3565b8114611a1357600080fd5b50565b600081519050611a25816119ff565b92915050565b600060208284031215611a4157611a406115e2565b5b6000611a4f84828501611a16565b91505092915050565b6000611a63826115ae565b9150611a6e836115ae565b9250828203905081811115611a8657611a85611967565b5b92915050565b7f4e487b7100000000000000000000000000000000000000000000000000000000600052601260045260246000fd5b6000611ac6826115ae565b9150611ad1836115ae565b925082611ae157611ae0611a8c565b5b828204905092915050565b6000611af7826115ae565b9150611b02836115ae565b9250828202611b10816115ae565b91508282048414831517611b2757611b26611967565b5b5092915050565b611b37816115ae565b8114611b4257600080fd5b50565b600081519050611b5481611b2e565b92915050565b600060208284031215611b7057611b6f6115e2565b5b6000611b7e84828501611b45565b91505092915050565b7f50726573616c653a2050726573616c65206973206e6f74206163746976650000600082015250565b6000611bbd601e8361175a565b9150611bc882611b87565b602082019050919050565b60006020820190508181036000830152611bec81611bb0565b9050919050565b7f50726573616c653a204e6f20746f6b656e73206c656674000000000000000000600082015250565b6000611c2960178361175a565b9150611c3482611bf3565b602082019050919050565b60006020820190508181036000830152611c5881611c1c565b9050919050565b7f50726573616c653a20496e73756666696369656e742066756e64730000000000600082015250565b6000611c95601b8361175a565b9150611ca082611c5f565b602082019050919050565b60006020820190508181036000830152611cc481611c88565b905091905056fea26469706673582212208901e05c741f3613229250f29913c5c1e0c10426ec1717a8bb7f33ec196210c364736f6c63430008120033",
  "linkReferences": {},
  "deployedLinkReferences": {}
}